{
  "contractName": "WavestreamPresale",
  "abi": [
    {
      "constant": true,
      "inputs": [],
      "name": "rate",
      "outputs": [
        {
          "name": "",
          "type": "uint256"
        }
      ],
      "payable": false,
      "stateMutability": "view",
      "type": "function"
    },
    {
      "constant": true,
      "inputs": [],
      "name": "cap",
      "outputs": [
        {
          "name": "",
          "type": "uint256"
        }
      ],
      "payable": false,
      "stateMutability": "view",
      "type": "function"
    },
    {
      "constant": true,
      "inputs": [],
      "name": "weiRaised",
      "outputs": [
        {
          "name": "",
          "type": "uint256"
        }
      ],
      "payable": false,
      "stateMutability": "view",
      "type": "function"
    },
    {
      "constant": true,
      "inputs": [],
      "name": "capReached",
      "outputs": [
        {
          "name": "",
          "type": "bool"
        }
      ],
      "payable": false,
      "stateMutability": "view",
      "type": "function"
    },
    {
      "constant": true,
      "inputs": [],
      "name": "wallet",
      "outputs": [
        {
          "name": "",
          "type": "address"
        }
      ],
      "payable": false,
      "stateMutability": "view",
      "type": "function"
    },
    {
      "constant": true,
      "inputs": [],
      "name": "priorityCap",
      "outputs": [
        {
          "name": "",
          "type": "uint256"
        }
      ],
      "payable": false,
      "stateMutability": "view",
      "type": "function"
    },
    {
      "constant": true,
      "inputs": [],
      "name": "owner",
      "outputs": [
        {
          "name": "",
          "type": "address"
        }
      ],
      "payable": false,
      "stateMutability": "view",
      "type": "function"
    },
    {
      "constant": true,
      "inputs": [],
      "name": "isClosed",
      "outputs": [
        {
          "name": "",
          "type": "bool"
        }
      ],
      "payable": false,
      "stateMutability": "view",
      "type": "function"
    },
    {
      "constant": false,
      "inputs": [
        {
          "name": "_beneficiary",
          "type": "address"
        }
      ],
      "name": "buyTokens",
      "outputs": [],
      "payable": true,
      "stateMutability": "payable",
      "type": "function"
    },
    {
      "constant": false,
      "inputs": [
        {
          "name": "newOwner",
          "type": "address"
        }
      ],
      "name": "transferOwnership",
      "outputs": [],
      "payable": false,
      "stateMutability": "nonpayable",
      "type": "function"
    },
    {
      "constant": true,
      "inputs": [],
      "name": "priorityWallet",
      "outputs": [
        {
          "name": "",
          "type": "address"
        }
      ],
      "payable": false,
      "stateMutability": "view",
      "type": "function"
    },
    {
      "constant": true,
      "inputs": [],
      "name": "token",
      "outputs": [
        {
          "name": "",
          "type": "address"
        }
      ],
      "payable": false,
      "stateMutability": "view",
      "type": "function"
    },
    {
      "inputs": [
        {
          "name": "_rate",
          "type": "uint256"
        },
        {
          "name": "_priorityWallet",
          "type": "address"
        },
        {
          "name": "_priorityCap",
          "type": "uint256"
        },
        {
          "name": "_wallet",
          "type": "address"
        },
        {
          "name": "_cap",
          "type": "uint256"
        },
        {
          "name": "_token",
          "type": "address"
        }
      ],
      "payable": false,
      "stateMutability": "nonpayable",
      "type": "constructor"
    },
    {
      "payable": true,
      "stateMutability": "payable",
      "type": "fallback"
    },
    {
      "anonymous": false,
      "inputs": [],
      "name": "Closed",
      "type": "event"
    },
    {
      "anonymous": false,
      "inputs": [
        {
          "indexed": true,
          "name": "previousOwner",
          "type": "address"
        },
        {
          "indexed": true,
          "name": "newOwner",
          "type": "address"
        }
      ],
      "name": "OwnershipTransferred",
      "type": "event"
    },
    {
      "anonymous": false,
      "inputs": [
        {
          "indexed": true,
          "name": "purchaser",
          "type": "address"
        },
        {
          "indexed": true,
          "name": "beneficiary",
          "type": "address"
        },
        {
          "indexed": false,
          "name": "value",
          "type": "uint256"
        },
        {
          "indexed": false,
          "name": "amount",
          "type": "uint256"
        }
      ],
      "name": "TokenPurchase",
      "type": "event"
    },
    {
      "constant": false,
      "inputs": [],
      "name": "closeCrowdsale",
      "outputs": [],
      "payable": false,
      "stateMutability": "nonpayable",
      "type": "function"
    }
  ],
  "bytecode": "0x60606040526000600560146101000a81548160ff021916908315150217905550341561002a57600080fd5b60405160c080611060833981016040528080519060200190919080519060200190919080519060200190919080519060200190919080519060200190919080519060200190919050508186848360008311151561008657600080fd5b600073ffffffffffffffffffffffffffffffffffffffff168273ffffffffffffffffffffffffffffffffffffffff16141515156100c257600080fd5b600073ffffffffffffffffffffffffffffffffffffffff168173ffffffffffffffffffffffffffffffffffffffff16141515156100fe57600080fd5b8260028190555081600160006101000a81548173ffffffffffffffffffffffffffffffffffffffff021916908373ffffffffffffffffffffffffffffffffffffffff160217905550806000806101000a81548173ffffffffffffffffffffffffffffffffffffffff021916908373ffffffffffffffffffffffffffffffffffffffff16021790555050505060008111151561019857600080fd5b806004819055505033600560006101000a81548173ffffffffffffffffffffffffffffffffffffffff021916908373ffffffffffffffffffffffffffffffffffffffff1602179055506000841115156101f057600080fd5b81841015156101fe57600080fd5b600073ffffffffffffffffffffffffffffffffffffffff168573ffffffffffffffffffffffffffffffffffffffff161415151561023a57600080fd5b8273ffffffffffffffffffffffffffffffffffffffff168573ffffffffffffffffffffffffffffffffffffffff161415151561027557600080fd5b84600760006101000a81548173ffffffffffffffffffffffffffffffffffffffff021916908373ffffffffffffffffffffffffffffffffffffffff16021790555083600681905550505050505050610d8e806102d26000396000f3006060604052600436106100c5576000357c0100000000000000000000000000000000000000000000000000000000900463ffffffff1680632c4e722e146100d0578063355274ea146100f95780634042b66f146101225780634f9359451461014b578063521eb273146101785780637535c930146101cd5780638da5cb5b146101f6578063983c0a011461024b578063c2b6b58c14610260578063ec8ac4d81461028d578063f2fde38b146102bb578063f98d28bb146102f4578063fc0c546a14610349575b6100ce3361039e565b005b34156100db57600080fd5b6100e361046c565b6040518082815260200191505060405180910390f35b341561010457600080fd5b61010c610472565b6040518082815260200191505060405180910390f35b341561012d57600080fd5b610135610478565b6040518082815260200191505060405180910390f35b341561015657600080fd5b61015e61047e565b604051808215151515815260200191505060405180910390f35b341561018357600080fd5b61018b61048d565b604051808273ffffffffffffffffffffffffffffffffffffffff1673ffffffffffffffffffffffffffffffffffffffff16815260200191505060405180910390f35b34156101d857600080fd5b6101e06104b3565b6040518082815260200191505060405180910390f35b341561020157600080fd5b6102096104b9565b604051808273ffffffffffffffffffffffffffffffffffffffff1673ffffffffffffffffffffffffffffffffffffffff16815260200191505060405180910390f35b341561025657600080fd5b61025e6104df565b005b341561026b57600080fd5b61027361077e565b604051808215151515815260200191505060405180910390f35b6102b9600480803573ffffffffffffffffffffffffffffffffffffffff1690602001909190505061039e565b005b34156102c657600080fd5b6102f2600480803573ffffffffffffffffffffffffffffffffffffffff16906020019091905050610791565b005b34156102ff57600080fd5b6103076108e9565b604051808273ffffffffffffffffffffffffffffffffffffffff1673ffffffffffffffffffffffffffffffffffffffff16815260200191505060405180910390f35b341561035457600080fd5b61035c61090f565b604051808273ffffffffffffffffffffffffffffffffffffffff1673ffffffffffffffffffffffffffffffffffffffff16815260200191505060405180910390f35b6000803491506103ae8383610934565b6103b78261095e565b90506103ce8260035461097c90919063ffffffff16565b6003819055506103de838261099a565b8273ffffffffffffffffffffffffffffffffffffffff163373ffffffffffffffffffffffffffffffffffffffff167f623b3804fa71d67900d064613da8f94b9617215ee90799290593e1745087ad188484604051808381526020018281526020019250505060405180910390a361045583836109a8565b61045d6109ac565b6104678383610ba8565b505050565b60025481565b60045481565b60035481565b60006004546003541015905090565b600160009054906101000a900473ffffffffffffffffffffffffffffffffffffffff1681565b60065481565b600560009054906101000a900473ffffffffffffffffffffffffffffffffffffffff1681565b6000600560009054906101000a900473ffffffffffffffffffffffffffffffffffffffff1673ffffffffffffffffffffffffffffffffffffffff163373ffffffffffffffffffffffffffffffffffffffff1614151561053d57600080fd5b600560149054906101000a900460ff1615151561055957600080fd5b6001600560146101000a81548160ff0219169083151502179055506000809054906101000a900473ffffffffffffffffffffffffffffffffffffffff1673ffffffffffffffffffffffffffffffffffffffff166370a08231306040518263ffffffff167c0100000000000000000000000000000000000000000000000000000000028152600401808273ffffffffffffffffffffffffffffffffffffffff1673ffffffffffffffffffffffffffffffffffffffff168152602001915050602060405180830381600087803b151561062f57600080fd5b5af1151561063c57600080fd5b505050604051805190509050600081111561074f576000809054906101000a900473ffffffffffffffffffffffffffffffffffffffff1673ffffffffffffffffffffffffffffffffffffffff1663a9059cbb600560009054906101000a900473ffffffffffffffffffffffffffffffffffffffff16836040518363ffffffff167c0100000000000000000000000000000000000000000000000000000000028152600401808373ffffffffffffffffffffffffffffffffffffffff1673ffffffffffffffffffffffffffffffffffffffff16815260200182815260200192505050602060405180830381600087803b151561073657600080fd5b5af1151561074357600080fd5b50505060405180519050505b7f1cdde67b72a90f19919ac732a437ac2f7a10fc128d28c2a6e525d89ce5cd9d3a60405160405180910390a150565b600560149054906101000a900460ff1681565b600560009054906101000a900473ffffffffffffffffffffffffffffffffffffffff1673ffffffffffffffffffffffffffffffffffffffff163373ffffffffffffffffffffffffffffffffffffffff161415156107ed57600080fd5b600073ffffffffffffffffffffffffffffffffffffffff168173ffffffffffffffffffffffffffffffffffffffff161415151561082957600080fd5b8073ffffffffffffffffffffffffffffffffffffffff16600560009054906101000a900473ffffffffffffffffffffffffffffffffffffffff1673ffffffffffffffffffffffffffffffffffffffff167f8be0079c531659141344cd1fd0a4f28419497f9722a3daafe3b4186f6b6457e060405160405180910390a380600560006101000a81548173ffffffffffffffffffffffffffffffffffffffff021916908373ffffffffffffffffffffffffffffffffffffffff16021790555050565b600760009054906101000a900473ffffffffffffffffffffffffffffffffffffffff1681565b6000809054906101000a900473ffffffffffffffffffffffffffffffffffffffff1681565b600560149054906101000a900460ff1615151561095057600080fd5b61095a8282610bac565b5050565b600061097560025483610bdf90919063ffffffff16565b9050919050565b600080828401905083811015151561099057fe5b8091505092915050565b6109a48282610c1a565b5050565b5050565b6000806000600654600354111515610a2557600760009054906101000a900473ffffffffffffffffffffffffffffffffffffffff1673ffffffffffffffffffffffffffffffffffffffff166108fc349081150290604051600060405180830381858888f193505050501515610a2057600080fd5b610ba3565b610a3a34600354610cf990919063ffffffff16565b9250600654831015610b3f57610a5b83600654610cf990919063ffffffff16565b9150610a74600654600354610cf990919063ffffffff16565b9050600760009054906101000a900473ffffffffffffffffffffffffffffffffffffffff1673ffffffffffffffffffffffffffffffffffffffff166108fc839081150290604051600060405180830381858888f193505050501515610ad857600080fd5b600160009054906101000a900473ffffffffffffffffffffffffffffffffffffffff1673ffffffffffffffffffffffffffffffffffffffff166108fc829081150290604051600060405180830381858888f193505050501515610b3a57600080fd5b610ba2565b600160009054906101000a900473ffffffffffffffffffffffffffffffffffffffff1673ffffffffffffffffffffffffffffffffffffffff166108fc349081150290604051600060405180830381858888f193505050501515610ba157600080fd5b5b5b505050565b5050565b610bb68282610d12565b600454610bce8260035461097c90919063ffffffff16565b11151515610bdb57600080fd5b5050565b6000806000841415610bf45760009150610c13565b8284029050828482811515610c0557fe5b04141515610c0f57fe5b8091505b5092915050565b6000809054906101000a900473ffffffffffffffffffffffffffffffffffffffff1673ffffffffffffffffffffffffffffffffffffffff1663a9059cbb83836040518363ffffffff167c0100000000000000000000000000000000000000000000000000000000028152600401808373ffffffffffffffffffffffffffffffffffffffff1673ffffffffffffffffffffffffffffffffffffffff16815260200182815260200192505050602060405180830381600087803b1515610cdd57600080fd5b5af11515610cea57600080fd5b50505060405180519050505050565b6000828211151515610d0757fe5b818303905092915050565b600073ffffffffffffffffffffffffffffffffffffffff168273ffffffffffffffffffffffffffffffffffffffff1614151515610d4e57600080fd5b60008114151515610d5e57600080fd5b50505600a165627a7a7230582036e546d04c3aefd021b5f78786a99ec2c10d505117ed29898126b1d9a8616bc80029",
  "source": "pragma solidity ^0.4.18;\n\nimport \"zeppelin-solidity/contracts/crowdsale/validation/CappedCrowdsale.sol\";\nimport \"zeppelin-solidity/contracts/ownership/Ownable.sol\";\n\n\n/**\n * @title WavestreamPresale\n * @dev Capped crowdsale with two wallets.\n */\ncontract WavestreamPresale is CappedCrowdsale, Ownable {\n  using SafeMath for uint256;\n\n  bool public isClosed = false;\n\n  event Closed();\n\n  // The raised funds are being forwarded to two wallets. First, until total\n  // amout of wei raised is less than or equal to `priorityCap`, raised funds\n  // are forwarded to `priorityWallet`. After that, raised funds are\n  // forwarded to `wallet`.\n  uint256 public priorityCap;\n\n  // Address where first priorityCap raised wei are forwarded.\n  address public priorityWallet;\n\n  /**\n   * @dev Constructor\n   * @param _rate Number of token units a buyer gets per wei\n   * @param _priorityWallet Address where first priorityCap raised wei are forwarded\n   * @param _priorityCap Max amount of wei to be forwarded to _priorityWallet\n   * @param _wallet Address where collected funds will be forwarded after hitting _priorityCap\n   * @param _cap Max amount of wei to be contributed\n   * @param _token Address of the token being sold\n   */\n  function WavestreamPresale(\n    uint256 _rate,\n    address _priorityWallet,\n    uint256 _priorityCap,\n    address _wallet,\n    uint256 _cap,\n    ERC20 _token\n  ) public\n    Crowdsale(_rate, _wallet, _token)\n    CappedCrowdsale(_cap)\n    Ownable()\n  {\n    require(_priorityCap > 0);\n    require(_priorityCap < _cap);\n    require(_priorityWallet != address(0));\n    require(_priorityWallet != _wallet);\n\n    priorityWallet = _priorityWallet;\n    priorityCap = _priorityCap;\n  }\n\n  /**\n   * @dev Closes crowdsale. Can be only called by contract owner.\n   */\n  function closeCrowdsale() onlyOwner public {\n    require(!isClosed);\n\n    isClosed = true;\n\n    uint256 tokenBalance = token.balanceOf(address(this));\n    if (tokenBalance > 0) {\n      token.transfer(owner, tokenBalance);\n    }\n\n    Closed();\n  }\n\n  /**\n   * @dev Determines how ETH is stored/forwarded on purchases.\n   * Part of OpenZeppelin internal interface.\n   */\n  function _forwardFunds() internal {\n    if (weiRaised <= priorityCap) {\n      priorityWallet.transfer(msg.value);\n    } else {\n      uint256 weiRaisedBefore = weiRaised.sub(msg.value);\n\n      if (weiRaisedBefore < priorityCap) {\n        uint256 transferToPriorityWallet = priorityCap.sub(weiRaisedBefore);\n        uint256 transferToWallet = weiRaised.sub(priorityCap);\n        priorityWallet.transfer(transferToPriorityWallet);\n        wallet.transfer(transferToWallet);\n      } else {\n        wallet.transfer(msg.value);\n      }\n    }\n  }\n\n  /**\n   * @dev Validation of an incoming purchase.\n   * Part of OpenZeppelin internal interface.\n   *\n   * @param _beneficiary Token purchaser\n   * @param _weiAmount Amount of wei contributed\n   */\n  function _preValidatePurchase(address _beneficiary, uint256 _weiAmount) internal {\n    require(!isClosed);\n    super._preValidatePurchase(_beneficiary, _weiAmount);\n  }\n}\n",
  "sourcePath": "/Users/eugene/dev/wavestream-presale/contracts/WavestreamPresale.sol",
  "compiler": {
    "name": "solc",
    "version": "0.4.21+commit.dfe3193c.Emscripten.clang"
  },
  "schemaVersion": "2.0.0",
  "updatedAt": "2018-04-14T14:23:37.721Z"
}